{"contracts/CrowdfundingFactory.sol":{"CrowdfundingFactory":{"abi":[{"anonymous":false,"inputs":[{"indexed":true,"internalType":"address","name":"campaignAddress","type":"address"},{"indexed":true,"internalType":"address","name":"owner","type":"address"},{"indexed":false,"internalType":"uint256","name":"goalAmount","type":"uint256"},{"indexed":false,"internalType":"uint256","name":"deadline","type":"uint256"}],"name":"CampaignCreated","type":"event"},{"inputs":[{"internalType":"uint256","name":"","type":"uint256"}],"name":"campaigns","outputs":[{"internalType":"address","name":"","type":"address"}],"stateMutability":"view","type":"function"},{"inputs":[{"internalType":"uint256","name":"_goalAmount","type":"uint256"},{"internalType":"uint256","name":"_deadlineTimestamp","type":"uint256"}],"name":"createCampaign","outputs":[{"internalType":"address","name":"","type":"address"}],"stateMutability":"nonpayable","type":"function"},{"inputs":[],"name":"getCampaignsCount","outputs":[{"internalType":"uint256","name":"","type":"uint256"}],"stateMutability":"view","type":"function"},{"inputs":[{"internalType":"address","name":"owner","type":"address"}],"name":"getOwnerCampaigns","outputs":[{"internalType":"address[]","name":"","type":"address[]"}],"stateMutability":"view","type":"function"},{"inputs":[{"internalType":"address","name":"","type":"address"},{"internalType":"uint256","name":"","type":"uint256"}],"name":"ownerCampaigns","outputs":[{"internalType":"address","name":"","type":"address"}],"stateMutability":"view","type":"function"}],"evm":{"bytecode":{"linkReferences":{},"object":"608060405234801561001057600080fd5b5061116b806100206000396000f3fe608060405234801561001057600080fd5b50600436106100575760003560e01c8063141961bc1461005c578063225022681461008c5780637e6253da1461009f578063a56a2759146100b0578063be03de4b146100c3575b600080fd5b61006f61006a366004610365565b6100e3565b6040516001600160a01b0390911681526020015b60405180910390f35b61006f61009a36600461037e565b61010d565b600054604051908152602001610083565b61006f6100be3660046103bc565b6102aa565b6100d66100d13660046103e6565b6102e2565b6040516100839190610408565b600081815481106100f357600080fd5b6000918252602090912001546001600160a01b0316905081565b60008083116101565760405162461bcd60e51b815260206004820152601060248201526f0476f616c206d757374206265203e20360841b60448201526064015b60405180910390fd5b4282116101a55760405162461bcd60e51b815260206004820152601a60248201527f446561646c696e65206d75737420626520696e20667574757265000000000000604482015260640161014d565b60003384846040516101b690610358565b6001600160a01b03909316835260208301919091526040820152606001604051809103906000f0801580156101ef573d6000803e3d6000fd5b5060008054600180820183557f290decd9548b62a8d60345a988386fc84ba6bc95484008f6362f93160ef3e56390910180546001600160a01b0385166001600160a01b0319918216811790925533808552602084815260408087208054968701815587529581902090940180549092168317909155835189815292830188905293945084939290917ffe76983af97e70cb1d5a3f3b21250c6bd2b5b9216dd3829a1cdab060e17ab15b910160405180910390a3949350505050565b600160205281600052604060002081815481106102c657600080fd5b6000918252602090912001546001600160a01b03169150829050565b6001600160a01b03811660009081526001602090815260409182902080548351818402810184019094528084526060939283018282801561034c57602002820191906000526020600020905b81546001600160a01b0316815260019091019060200180831161032e575b50505050509050919050565b610ce08061045683390190565b60006020828403121561037757600080fd5b5035919050565b6000806040838503121561039157600080fd5b50508035926020909101359150565b80356001600160a01b03811681146103b757600080fd5b919050565b600080604083850312156103cf57600080fd5b6103d8836103a0565b946020939093013593505050565b6000602082840312156103f857600080fd5b610401826103a0565b9392505050565b6020808252825182820181905260009190848201906040850190845b818110156104495783516001600160a01b031683529284019291840191600101610424565b5090969550505050505056fe608060405234801561001057600080fd5b50604051610ce0380380610ce083398101604081905261002f9161005b565b600080546001600160a01b0319166001600160a01b03949094169390931790925560015560035561009e565b60008060006060848603121561007057600080fd5b83516001600160a01b038116811461008757600080fd5b602085015160409095015190969495509392505050565b610c33806100ad6000396000f3fe6080604052600436106100ec5760003560e01c80638da5cb5b1161008a578063d7bb99ba11610059578063d7bb99ba146102e7578063ea8a1af0146102ef578063f441b1c814610304578063feed55611461031a57600080fd5b80638da5cb5b1461021b5780639a82a09a1461023b578063c80ec5221461026a578063d6290cd71461028457600080fd5b806338e771ab116100c657806338e771ab1461018c5780633cb5d100146101a157806342e94c90146101d9578063590e1ae31461020657600080fd5b806324600fc3146101365780632636b9451461014d57806329dcb0cf1461017657600080fd5b366101315760405162461bcd60e51b815260206004820152601060248201526f55736520636f6e74726962757465282960801b60448201526064015b60405180910390fd5b600080fd5b34801561014257600080fd5b5061014b61032f565b005b34801561015957600080fd5b5061016360015481565b6040519081526020015b60405180910390f35b34801561018257600080fd5b5061016360035481565b34801561019857600080fd5b5061014b610498565b3480156101ad57600080fd5b506101c16101bc366004610b06565b61061b565b6040516001600160a01b03909116815260200161016d565b3480156101e557600080fd5b506101636101f4366004610b1f565b60056020526000908152604090205481565b34801561021257600080fd5b5061014b610645565b34801561022757600080fd5b506000546101c1906001600160a01b031681565b34801561024757600080fd5b5060045461025a90610100900460ff1681565b604051901515815260200161016d565b34801561027657600080fd5b5060045461025a9060ff1681565b34801561029057600080fd5b50600054600154600254600354600454604080516001600160a01b039096168652602086019490945292840191909152606083015260ff8082161515608084015261010090910416151560a082015260c00161016d565b61014b610782565b3480156102fb57600080fd5b5061014b610958565b34801561031057600080fd5b5061016360025481565b34801561032657600080fd5b50600654610163565b6000546001600160a01b031633146103595760405162461bcd60e51b815260040161012890610b4f565b60035442101561037b5760405162461bcd60e51b815260040161012890610b72565b60015460025410156103c25760405162461bcd60e51b815260206004820152601060248201526f11dbd85b081b9bdd081c995858da195960821b6044820152606401610128565b60045460ff16156104095760405162461bcd60e51b815260206004820152601160248201527020b63932b0b23c903bb4ba34323930bbb760791b6044820152606401610128565b6004805460ff191660011790556000805460405147926001600160a01b039092169183156108fc02918491818181858888f19350505050158015610451573d6000803e3d6000fd5b506000546040518281526001600160a01b03909116907feaff4b37086828766ad3268786972c0cd24259d4c87a80f9d3963a3c3d999b0d906020015b60405180910390a250565b6000546001600160a01b031633146104c25760405162461bcd60e51b815260040161012890610b4f565b6003544210156104e45760405162461bcd60e51b815260040161012890610b72565b6001546002541061052a5760405162461bcd60e51b815260206004820152601060248201526f11dbd85b081dd85cc81c995858da195960821b6044820152606401610128565b60005b6006548110156106185760006006828154811061054c5761054c610b9f565b60009182526020808320909101546001600160a01b031680835260059091526040909120549091508015610603576001600160a01b0382166000818152600560205260408082208290555183156108fc0291849190818181858888f193505050501580156105be573d6000803e3d6000fd5b50816001600160a01b03167fa171b6942063c6f2800ce40a780edce37baa2b618571b11eedd1e69e626e7d76826040516105fa91815260200190565b60405180910390a25b5050808061061090610bcb565b91505061052d565b50565b6006818154811061062b57600080fd5b6000918252602090912001546001600160a01b0316905081565b6003544210156106675760405162461bcd60e51b815260040161012890610b72565b600154600254106106ba5760405162461bcd60e51b815260206004820152601b60248201527f476f616c2077617320726561636865642c206e6f20726566756e6400000000006044820152606401610128565b3360009081526005602052604090205461070e5760405162461bcd60e51b8152602060048201526015602482015274139bc818dbdb9d1c9a589d5d1a5bdb88199bdd5b99605a1b6044820152606401610128565b33600081815260056020526040808220805490839055905190929183156108fc02918491818181858888f1935050505015801561074f573d6000803e3d6000fd5b5060405181815233907fa171b6942063c6f2800ce40a780edce37baa2b618571b11eedd1e69e626e7d769060200161048d565b600454610100900460ff1615801561079b575060035442105b6107dd5760405162461bcd60e51b815260206004820152601360248201527243616d706169676e206e6f742061637469766560681b6044820152606401610128565b6000546001600160a01b031633036108375760405162461bcd60e51b815260206004820152601760248201527f4f776e65722063616e6e6f7420636f6e747269627574650000000000000000006044820152606401610128565b6000341161087c5760405162461bcd60e51b81526020600482015260126024820152710416d6f756e74206d757374206265203e20360741b6044820152606401610128565b3360009081526005602052604081205490036108d557600680546001810182556000919091527ff652222313e28459528d920b65115c16c04f3efc82aaedc97be59f3f377c0d3f0180546001600160a01b031916331790555b33600090815260056020526040812080543492906108f4908490610be4565b92505081905550346002600082825461090d9190610be4565b909155505060025460405133917fd2dff949d20e874cc6ba1dcefb840fb8cf6000a4197bfb69accfea5a32443ff59161094e91348252602082015260400190565b60405180910390a2565b6000546001600160a01b031633146109825760405162461bcd60e51b815260040161012890610b4f565b600454610100900460ff1615801561099b575060035442105b6109dd5760405162461bcd60e51b815260206004820152601360248201527243616d706169676e206e6f742061637469766560681b6044820152606401610128565b6004805461ff00191661010017905560005b600654811015610ada57600060068281548110610a0e57610a0e610b9f565b60009182526020808320909101546001600160a01b031680835260059091526040909120549091508015610ac5576001600160a01b0382166000818152600560205260408082208290555183156108fc0291849190818181858888f19350505050158015610a80573d6000803e3d6000fd5b50816001600160a01b03167fa171b6942063c6f2800ce40a780edce37baa2b618571b11eedd1e69e626e7d7682604051610abc91815260200190565b60405180910390a25b50508080610ad290610bcb565b9150506109ef565b506040517f123d4f203b2b83bfe9f45903402bb88193cc56a43371d97ab5a51bd1817d858690600090a1565b600060208284031215610b1857600080fd5b5035919050565b600060208284031215610b3157600080fd5b81356001600160a01b0381168114610b4857600080fd5b9392505050565b6020808252600990820152682737ba1037bbb732b960b91b604082015260600190565b602080825260139082015272111958591b1a5b99481b9bdd081c185cdcd959606a1b604082015260600190565b634e487b7160e01b600052603260045260246000fd5b634e487b7160e01b600052601160045260246000fd5b600060018201610bdd57610bdd610bb5565b5060010190565b80820180821115610bf757610bf7610bb5565b9291505056fea2646970667358221220c64ac0e77953849d7fc3d1fdd972f85025dd91bef97bf6796cd824f55f4d65bc64736f6c63430008130033a26469706673582212203e66f1bb80359a79db813499ddf61a66eae4fdbae0c42e88fe836f085bd3ea7364736f6c63430008130033","opcodes":"PUSH1 0x80 PUSH1 0x40 MSTORE CALLVALUE DUP1 ISZERO PUSH2 0x10 JUMPI PUSH1 0x0 DUP1 REVERT JUMPDEST POP PUSH2 0x116B DUP1 PUSH2 0x20 PUSH1 0x0 CODECOPY PUSH1 0x0 RETURN INVALID PUSH1 0x80 PUSH1 0x40 MSTORE CALLVALUE DUP1 ISZERO PUSH2 0x10 JUMPI PUSH1 0x0 DUP1 REVERT JUMPDEST POP PUSH1 0x4 CALLDATASIZE LT PUSH2 0x57 JUMPI PUSH1 0x0 CALLDATALOAD PUSH1 0xE0 SHR DUP1 PUSH4 0x141961BC EQ PUSH2 0x5C JUMPI DUP1 PUSH4 0x22502268 EQ PUSH2 0x8C JUMPI DUP1 PUSH4 0x7E6253DA EQ PUSH2 0x9F JUMPI DUP1 PUSH4 0xA56A2759 EQ PUSH2 0xB0 JUMPI DUP1 PUSH4 0xBE03DE4B EQ PUSH2 0xC3 JUMPI JUMPDEST PUSH1 0x0 DUP1 REVERT JUMPDEST PUSH2 0x6F PUSH2 0x6A CALLDATASIZE PUSH1 0x4 PUSH2 0x365 JUMP JUMPDEST PUSH2 0xE3 JUMP JUMPDEST PUSH1 0x40 MLOAD PUSH1 0x1 PUSH1 0x1 PUSH1 0xA0 SHL SUB SWAP1 SWAP2 AND DUP2 MSTORE PUSH1 0x20 ADD JUMPDEST PUSH1 0x40 MLOAD DUP1 SWAP2 SUB SWAP1 RETURN JUMPDEST PUSH2 0x6F PUSH2 0x9A CALLDATASIZE PUSH1 0x4 PUSH2 0x37E JUMP JUMPDEST PUSH2 0x10D JUMP JUMPDEST PUSH1 0x0 SLOAD PUSH1 0x40 MLOAD SWAP1 DUP2 MSTORE PUSH1 0x20 ADD PUSH2 0x83 JUMP JUMPDEST PUSH2 0x6F PUSH2 0xBE CALLDATASIZE PUSH1 0x4 PUSH2 0x3BC JUMP JUMPDEST PUSH2 0x2AA JUMP JUMPDEST PUSH2 0xD6 PUSH2 0xD1 CALLDATASIZE PUSH1 0x4 PUSH2 0x3E6 JUMP JUMPDEST PUSH2 0x2E2 JUMP JUMPDEST PUSH1 0x40 MLOAD PUSH2 0x83 SWAP2 SWAP1 PUSH2 0x408 JUMP JUMPDEST PUSH1 0x0 DUP2 DUP2 SLOAD DUP2 LT PUSH2 0xF3 JUMPI PUSH1 0x0 DUP1 REVERT JUMPDEST PUSH1 0x0 SWAP2 DUP3 MSTORE PUSH1 0x20 SWAP1 SWAP2 KECCAK256 ADD SLOAD PUSH1 0x1 PUSH1 0x1 PUSH1 0xA0 SHL SUB AND SWAP1 POP DUP2 JUMP JUMPDEST PUSH1 0x0 DUP1 DUP4 GT PUSH2 0x156 JUMPI PUSH1 0x40 MLOAD PUSH3 0x461BCD PUSH1 0xE5 SHL DUP2 MSTORE PUSH1 0x20 PUSH1 0x4 DUP3 ADD MSTORE PUSH1 0x10 PUSH1 0x24 DUP3 ADD MSTORE PUSH16 0x476F616C206D757374206265203E203 PUSH1 0x84 SHL PUSH1 0x44 DUP3 ADD MSTORE PUSH1 0x64 ADD JUMPDEST PUSH1 0x40 MLOAD DUP1 SWAP2 SUB SWAP1 REVERT JUMPDEST TIMESTAMP DUP3 GT PUSH2 0x1A5 JUMPI PUSH1 0x40 MLOAD PUSH3 0x461BCD PUSH1 0xE5 SHL DUP2 MSTORE PUSH1 0x20 PUSH1 0x4 DUP3 ADD MSTORE PUSH1 0x1A PUSH1 0x24 DUP3 ADD MSTORE PUSH32 0x446561646C696E65206D75737420626520696E20667574757265000000000000 PUSH1 0x44 DUP3 ADD MSTORE PUSH1 0x64 ADD PUSH2 0x14D JUMP JUMPDEST PUSH1 0x0 CALLER DUP5 DUP5 PUSH1 0x40 MLOAD PUSH2 0x1B6 SWAP1 PUSH2 0x358 JUMP JUMPDEST PUSH1 0x1 PUSH1 0x1 PUSH1 0xA0 SHL SUB SWAP1 SWAP4 AND DUP4 MSTORE PUSH1 0x20 DUP4 ADD SWAP2 SWAP1 SWAP2 MSTORE PUSH1 0x40 DUP3 ADD MSTORE PUSH1 0x60 ADD PUSH1 0x40 MLOAD DUP1 SWAP2 SUB SWAP1 PUSH1 0x0 CREATE DUP1 ISZERO DUP1 ISZERO PUSH2 0x1EF JUMPI RETURNDATASIZE PUSH1 0x0 DUP1 RETURNDATACOPY RETURNDATASIZE PUSH1 0x0 REVERT JUMPDEST POP PUSH1 0x0 DUP1 SLOAD PUSH1 0x1 DUP1 DUP3 ADD DUP4 SSTORE PUSH32 0x290DECD9548B62A8D60345A988386FC84BA6BC95484008F6362F93160EF3E563 SWAP1 SWAP2 ADD DUP1 SLOAD PUSH1 0x1 PUSH1 0x1 PUSH1 0xA0 SHL SUB DUP6 AND PUSH1 0x1 PUSH1 0x1 PUSH1 0xA0 SHL SUB NOT SWAP2 DUP3 AND DUP2 OR SWAP1 SWAP3 SSTORE CALLER DUP1 DUP6 MSTORE PUSH1 0x20 DUP5 DUP2 MSTORE PUSH1 0x40 DUP1 DUP8 KECCAK256 DUP1 SLOAD SWAP7 DUP8 ADD DUP2 SSTORE DUP8 MSTORE SWAP6 DUP2 SWAP1 KECCAK256 SWAP1 SWAP5 ADD DUP1 SLOAD SWAP1 SWAP3 AND DUP4 OR SWAP1 SWAP2 SSTORE DUP4 MLOAD DUP10 DUP2 MSTORE SWAP3 DUP4 ADD DUP9 SWAP1 MSTORE SWAP4 SWAP5 POP DUP5 SWAP4 SWAP3 SWAP1 SWAP2 PUSH32 0xFE76983AF97E70CB1D5A3F3B21250C6BD2B5B9216DD3829A1CDAB060E17AB15B SWAP2 ADD PUSH1 0x40 MLOAD DUP1 SWAP2 SUB SWAP1 LOG3 SWAP5 SWAP4 POP POP POP POP JUMP JUMPDEST PUSH1 0x1 PUSH1 0x20 MSTORE DUP2 PUSH1 0x0 MSTORE PUSH1 0x40 PUSH1 0x0 KECCAK256 DUP2 DUP2 SLOAD DUP2 LT PUSH2 0x2C6 JUMPI PUSH1 0x0 DUP1 REVERT JUMPDEST PUSH1 0x0 SWAP2 DUP3 MSTORE PUSH1 0x20 SWAP1 SWAP2 KECCAK256 ADD SLOAD PUSH1 0x1 PUSH1 0x1 PUSH1 0xA0 SHL SUB AND SWAP2 POP DUP3 SWAP1 POP JUMP JUMPDEST PUSH1 0x1 PUSH1 0x1 PUSH1 0xA0 SHL SUB DUP2 AND PUSH1 0x0 SWAP1 DUP2 MSTORE PUSH1 0x1 PUSH1 0x20 SWAP1 DUP2 MSTORE PUSH1 0x40 SWAP2 DUP3 SWAP1 KECCAK256 DUP1 SLOAD DUP4 MLOAD DUP2 DUP5 MUL DUP2 ADD DUP5 ADD SWAP1 SWAP5 MSTORE DUP1 DUP5 MSTORE PUSH1 0x60 SWAP4 SWAP3 DUP4 ADD DUP3 DUP3 DUP1 ISZERO PUSH2 0x34C JUMPI PUSH1 0x20 MUL DUP3 ADD SWAP2 SWAP1 PUSH1 0x0 MSTORE PUSH1 0x20 PUSH1 0x0 KECCAK256 SWAP1 JUMPDEST DUP2 SLOAD PUSH1 0x1 PUSH1 0x1 PUSH1 0xA0 SHL SUB AND DUP2 MSTORE PUSH1 0x1 SWAP1 SWAP2 ADD SWAP1 PUSH1 0x20 ADD DUP1 DUP4 GT PUSH2 0x32E JUMPI JUMPDEST POP POP POP POP POP SWAP1 POP SWAP2 SWAP1 POP JUMP JUMPDEST PUSH2 0xCE0 DUP1 PUSH2 0x456 DUP4 CODECOPY ADD SWAP1 JUMP JUMPDEST PUSH1 0x0 PUSH1 0x20 DUP3 DUP5 SUB SLT ISZERO PUSH2 0x377 JUMPI PUSH1 0x0 DUP1 REVERT JUMPDEST POP CALLDATALOAD SWAP2 SWAP1 POP JUMP JUMPDEST PUSH1 0x0 DUP1 PUSH1 0x40 DUP4 DUP6 SUB SLT ISZERO PUSH2 0x391 JUMPI PUSH1 0x0 DUP1 REVERT JUMPDEST POP POP DUP1 CALLDATALOAD SWAP3 PUSH1 0x20 SWAP1 SWAP2 ADD CALLDATALOAD SWAP2 POP JUMP JUMPDEST DUP1 CALLDATALOAD PUSH1 0x1 PUSH1 0x1 PUSH1 0xA0 SHL SUB DUP2 AND DUP2 EQ PUSH2 0x3B7 JUMPI PUSH1 0x0 DUP1 REVERT JUMPDEST SWAP2 SWAP1 POP JUMP JUMPDEST PUSH1 0x0 DUP1 PUSH1 0x40 DUP4 DUP6 SUB SLT ISZERO PUSH2 0x3CF JUMPI PUSH1 0x0 DUP1 REVERT JUMPDEST PUSH2 0x3D8 DUP4 PUSH2 0x3A0 JUMP JUMPDEST SWAP5 PUSH1 0x20 SWAP4 SWAP1 SWAP4 ADD CALLDATALOAD SWAP4 POP POP POP JUMP JUMPDEST PUSH1 0x0 PUSH1 0x20 DUP3 DUP5 SUB SLT ISZERO PUSH2 0x3F8 JUMPI PUSH1 0x0 DUP1 REVERT JUMPDEST PUSH2 0x401 DUP3 PUSH2 0x3A0 JUMP JUMPDEST SWAP4 SWAP3 POP POP POP JUMP JUMPDEST PUSH1 0x20 DUP1 DUP3 MSTORE DUP3 MLOAD DUP3 DUP3 ADD DUP2 SWAP1 MSTORE PUSH1 0x0 SWAP2 SWAP1 DUP5 DUP3 ADD SWAP1 PUSH1 0x40 DUP6 ADD SWAP1 DUP5 JUMPDEST DUP2 DUP2 LT ISZERO PUSH2 0x449 JUMPI DUP4 MLOAD PUSH1 0x1 PUSH1 0x1 PUSH1 0xA0 SHL SUB AND DUP4 MSTORE SWAP3 DUP5 ADD SWAP3 SWAP2 DUP5 ADD SWAP2 PUSH1 0x1 ADD PUSH2 0x424 JUMP JUMPDEST POP SWAP1 SWAP7 SWAP6 POP POP POP POP POP POP JUMP INVALID PUSH1 0x80 PUSH1 0x40 MSTORE CALLVALUE DUP1 ISZERO PUSH2 0x10 JUMPI PUSH1 0x0 DUP1 REVERT JUMPDEST POP PUSH1 0x40 MLOAD PUSH2 0xCE0 CODESIZE SUB DUP1 PUSH2 0xCE0 DUP4 CODECOPY DUP2 ADD PUSH1 0x40 DUP2 SWAP1 MSTORE PUSH2 0x2F SWAP2 PUSH2 0x5B JUMP JUMPDEST PUSH1 0x0 DUP1 SLOAD PUSH1 0x1 PUSH1 0x1 PUSH1 0xA0 SHL SUB NOT AND PUSH1 0x1 PUSH1 0x1 PUSH1 0xA0 SHL SUB SWAP5 SWAP1 SWAP5 AND SWAP4 SWAP1 SWAP4 OR SWAP1 SWAP3 SSTORE PUSH1 0x1 SSTORE PUSH1 0x3 SSTORE PUSH2 0x9E JUMP JUMPDEST PUSH1 0x0 DUP1 PUSH1 0x0 PUSH1 0x60 DUP5 DUP7 SUB SLT ISZERO PUSH2 0x70 JUMPI PUSH1 0x0 DUP1 REVERT JUMPDEST DUP4 MLOAD PUSH1 0x1 PUSH1 0x1 PUSH1 0xA0 SHL SUB DUP2 AND DUP2 EQ PUSH2 0x87 JUMPI PUSH1 0x0 DUP1 REVERT JUMPDEST PUSH1 0x20 DUP6 ADD MLOAD PUSH1 0x40 SWAP1 SWAP6 ADD MLOAD SWAP1 SWAP7 SWAP5 SWAP6 POP SWAP4 SWAP3 POP POP POP JUMP JUMPDEST PUSH2 0xC33 DUP1 PUSH2 0xAD PUSH1 0x0 CODECOPY PUSH1 0x0 RETURN INVALID PUSH1 0x80 PUSH1 0x40 MSTORE PUSH1 0x4 CALLDATASIZE LT PUSH2 0xEC JUMPI PUSH1 0x0 CALLDATALOAD PUSH1 0xE0 SHR DUP1 PUSH4 0x8DA5CB5B GT PUSH2 0x8A JUMPI DUP1 PUSH4 0xD7BB99BA GT PUSH2 0x59 JUMPI DUP1 PUSH4 0xD7BB99BA EQ PUSH2 0x2E7 JUMPI DUP1 PUSH4 0xEA8A1AF0 EQ PUSH2 0x2EF JUMPI DUP1 PUSH4 0xF441B1C8 EQ PUSH2 0x304 JUMPI DUP1 PUSH4 0xFEED5561 EQ PUSH2 0x31A JUMPI PUSH1 0x0 DUP1 REVERT JUMPDEST DUP1 PUSH4 0x8DA5CB5B EQ PUSH2 0x21B JUMPI DUP1 PUSH4 0x9A82A09A EQ PUSH2 0x23B JUMPI DUP1 PUSH4 0xC80EC522 EQ PUSH2 0x26A JUMPI DUP1 PUSH4 0xD6290CD7 EQ PUSH2 0x284 JUMPI PUSH1 0x0 DUP1 REVERT JUMPDEST DUP1 PUSH4 0x38E771AB GT PUSH2 0xC6 JUMPI DUP1 PUSH4 0x38E771AB EQ PUSH2 0x18C JUMPI DUP1 PUSH4 0x3CB5D100 EQ PUSH2 0x1A1 JUMPI DUP1 PUSH4 0x42E94C90 EQ PUSH2 0x1D9 JUMPI DUP1 PUSH4 0x590E1AE3 EQ PUSH2 0x206 JUMPI PUSH1 0x0 DUP1 REVERT JUMPDEST DUP1 PUSH4 0x24600FC3 EQ PUSH2 0x136 JUMPI DUP1 PUSH4 0x2636B945 EQ PUSH2 0x14D JUMPI DUP1 PUSH4 0x29DCB0CF EQ PUSH2 0x176 JUMPI PUSH1 0x0 DUP1 REVERT JUMPDEST CALLDATASIZE PUSH2 0x131 JUMPI PUSH1 0x40 MLOAD PUSH3 0x461BCD PUSH1 0xE5 SHL DUP2 MSTORE PUSH1 0x20 PUSH1 0x4 DUP3 ADD MSTORE PUSH1 0x10 PUSH1 0x24 DUP3 ADD MSTORE PUSH16 0x55736520636F6E747269627574652829 PUSH1 0x80 SHL PUSH1 0x44 DUP3 ADD MSTORE PUSH1 0x64 ADD JUMPDEST PUSH1 0x40 MLOAD DUP1 SWAP2 SUB SWAP1 REVERT JUMPDEST PUSH1 0x0 DUP1 REVERT JUMPDEST CALLVALUE DUP1 ISZERO PUSH2 0x142 JUMPI PUSH1 0x0 DUP1 REVERT JUMPDEST POP PUSH2 0x14B PUSH2 0x32F JUMP JUMPDEST STOP JUMPDEST CALLVALUE DUP1 ISZERO PUSH2 0x159 JUMPI PUSH1 0x0 DUP1 REVERT JUMPDEST POP PUSH2 0x163 PUSH1 0x1 SLOAD DUP2 JUMP JUMPDEST PUSH1 0x40 MLOAD SWAP1 DUP2 MSTORE PUSH1 0x20 ADD JUMPDEST PUSH1 0x40 MLOAD DUP1 SWAP2 SUB SWAP1 RETURN JUMPDEST CALLVALUE DUP1 ISZERO PUSH2 0x182 JUMPI PUSH1 0x0 DUP1 REVERT JUMPDEST POP PUSH2 0x163 PUSH1 0x3 SLOAD DUP2 JUMP JUMPDEST CALLVALUE DUP1 ISZERO PUSH2 0x198 JUMPI PUSH1 0x0 DUP1 REVERT JUMPDEST POP PUSH2 0x14B PUSH2 0x498 JUMP JUMPDEST CALLVALUE DUP1 ISZERO PUSH2 0x1AD JUMPI PUSH1 0x0 DUP1 REVERT JUMPDEST POP PUSH2 0x1C1 PUSH2 0x1BC CALLDATASIZE PUSH1 0x4 PUSH2 0xB06 JUMP JUMPDEST PUSH2 0x61B JUMP JUMPDEST PUSH1 0x40 MLOAD PUSH1 0x1 PUSH1 0x1 PUSH1 0xA0 SHL SUB SWAP1 SWAP2 AND DUP2 MSTORE PUSH1 0x20 ADD PUSH2 0x16D JUMP JUMPDEST CALLVALUE DUP1 ISZERO PUSH2 0x1E5 JUMPI PUSH1 0x0 DUP1 REVERT JUMPDEST POP PUSH2 0x163 PUSH2 0x1F4 CALLDATASIZE PUSH1 0x4 PUSH2 0xB1F JUMP JUMPDEST PUSH1 0x5 PUSH1 0x20 MSTORE PUSH1 0x0 SWAP1 DUP2 MSTORE PUSH1 0x40 SWAP1 KECCAK256 SLOAD DUP2 JUMP JUMPDEST CALLVALUE DUP1 ISZERO PUSH2 0x212 JUMPI PUSH1 0x0 DUP1 REVERT JUMPDEST POP PUSH2 0x14B PUSH2 0x645 JUMP JUMPDEST CALLVALUE DUP1 ISZERO PUSH2 0x227 JUMPI PUSH1 0x0 DUP1 REVERT JUMPDEST POP PUSH1 0x0 SLOAD PUSH2 0x1C1 SWAP1 PUSH1 0x1 PUSH1 0x1 PUSH1 0xA0 SHL SUB AND DUP2 JUMP JUMPDEST CALLVALUE DUP1 ISZERO PUSH2 0x247 JUMPI PUSH1 0x0 DUP1 REVERT JUMPDEST POP PUSH1 0x4 SLOAD PUSH2 0x25A SWAP1 PUSH2 0x100 SWAP1 DIV PUSH1 0xFF AND DUP2 JUMP JUMPDEST PUSH1 0x40 MLOAD SWAP1 ISZERO ISZERO DUP2 MSTORE PUSH1 0x20 ADD PUSH2 0x16D JUMP JUMPDEST CALLVALUE DUP1 ISZERO PUSH2 0x276 JUMPI PUSH1 0x0 DUP1 REVERT JUMPDEST POP PUSH1 0x4 SLOAD PUSH2 0x25A SWAP1 PUSH1 0xFF AND DUP2 JUMP JUMPDEST CALLVALUE DUP1 ISZERO PUSH2 0x290 JUMPI PUSH1 0x0 DUP1 REVERT JUMPDEST POP PUSH1 0x0 SLOAD PUSH1 0x1 SLOAD PUSH1 0x2 SLOAD PUSH1 0x3 SLOAD PUSH1 0x4 SLOAD PUSH1 0x40 DUP1 MLOAD PUSH1 0x1 PUSH1 0x1 PUSH1 0xA0 SHL SUB SWAP1 SWAP7 AND DUP7 MSTORE PUSH1 0x20 DUP7 ADD SWAP5 SWAP1 SWAP5 MSTORE SWAP3 DUP5 ADD SWAP2 SWAP1 SWAP2 MSTORE PUSH1 0x60 DUP4 ADD MSTORE PUSH1 0xFF DUP1 DUP3 AND ISZERO ISZERO PUSH1 0x80 DUP5 ADD MSTORE PUSH2 0x100 SWAP1 SWAP2 DIV AND ISZERO ISZERO PUSH1 0xA0 DUP3 ADD MSTORE PUSH1 0xC0 ADD PUSH2 0x16D JUMP JUMPDEST PUSH2 0x14B PUSH2 0x782 JUMP JUMPDEST CALLVALUE DUP1 ISZERO PUSH2 0x2FB JUMPI PUSH1 0x0 DUP1 REVERT JUMPDEST POP PUSH2 0x14B PUSH2 0x958 JUMP JUMPDEST CALLVALUE DUP1 ISZERO PUSH2 0x310 JUMPI PUSH1 0x0 DUP1 REVERT JUMPDEST POP PUSH2 0x163 PUSH1 0x2 SLOAD DUP2 JUMP JUMPDEST CALLVALUE DUP1 ISZERO PUSH2 0x326 JUMPI PUSH1 0x0 DUP1 REVERT JUMPDEST POP PUSH1 0x6 SLOAD PUSH2 0x163 JUMP JUMPDEST PUSH1 0x0 SLOAD PUSH1 0x1 PUSH1 0x1 PUSH1 0xA0 SHL SUB AND CALLER EQ PUSH2 0x359 JUMPI PUSH1 0x40 MLOAD PUSH3 0x461BCD PUSH1 0xE5 SHL DUP2 MSTORE PUSH1 0x4 ADD PUSH2 0x128 SWAP1 PUSH2 0xB4F JUMP JUMPDEST PUSH1 0x3 SLOAD TIMESTAMP LT ISZERO PUSH2 0x37B JUMPI PUSH1 0x40 MLOAD PUSH3 0x461BCD PUSH1 0xE5 SHL DUP2 MSTORE PUSH1 0x4 ADD PUSH2 0x128 SWAP1 PUSH2 0xB72 JUMP JUMPDEST PUSH1 0x1 SLOAD PUSH1 0x2 SLOAD LT ISZERO PUSH2 0x3C2 JUMPI PUSH1 0x40 MLOAD PUSH3 0x461BCD PUSH1 0xE5 SHL DUP2 MSTORE PUSH1 0x20 PUSH1 0x4 DUP3 ADD MSTORE PUSH1 0x10 PUSH1 0x24 DUP3 ADD MSTORE PUSH16 0x11DBD85B081B9BDD081C995858DA1959 PUSH1 0x82 SHL PUSH1 0x44 DUP3 ADD MSTORE PUSH1 0x64 ADD PUSH2 0x128 JUMP JUMPDEST PUSH1 0x4 SLOAD PUSH1 0xFF AND ISZERO PUSH2 0x409 JUMPI PUSH1 0x40 MLOAD PUSH3 0x461BCD PUSH1 0xE5 SHL DUP2 MSTORE PUSH1 0x20 PUSH1 0x4 DUP3 ADD MSTORE PUSH1 0x11 PUSH1 0x24 DUP3 ADD MSTORE PUSH17 0x20B63932B0B23C903BB4BA34323930BBB7 PUSH1 0x79 SHL PUSH1 0x44 DUP3 ADD MSTORE PUSH1 0x64 ADD PUSH2 0x128 JUMP JUMPDEST PUSH1 0x4 DUP1 SLOAD PUSH1 0xFF NOT AND PUSH1 0x1 OR SWAP1 SSTORE PUSH1 0x0 DUP1 SLOAD PUSH1 0x40 MLOAD SELFBALANCE SWAP3 PUSH1 0x1 PUSH1 0x1 PUSH1 0xA0 SHL SUB SWAP1 SWAP3 AND SWAP2 DUP4 ISZERO PUSH2 0x8FC MUL SWAP2 DUP5 SWAP2 DUP2 DUP2 DUP2 DUP6 DUP9 DUP9 CALL SWAP4 POP POP POP POP ISZERO DUP1 ISZERO PUSH2 0x451 JUMPI RETURNDATASIZE PUSH1 0x0 DUP1 RETURNDATACOPY RETURNDATASIZE PUSH1 0x0 REVERT JUMPDEST POP PUSH1 0x0 SLOAD PUSH1 0x40 MLOAD DUP3 DUP2 MSTORE PUSH1 0x1 PUSH1 0x1 PUSH1 0xA0 SHL SUB SWAP1 SWAP2 AND SWAP1 PUSH32 0xEAFF4B37086828766AD3268786972C0CD24259D4C87A80F9D3963A3C3D999B0D SWAP1 PUSH1 0x20 ADD JUMPDEST PUSH1 0x40 MLOAD DUP1 SWAP2 SUB SWAP1 LOG2 POP JUMP JUMPDEST PUSH1 0x0 SLOAD PUSH1 0x1 PUSH1 0x1 PUSH1 0xA0 SHL SUB AND CALLER EQ PUSH2 0x4C2 JUMPI PUSH1 0x40 MLOAD PUSH3 0x461BCD PUSH1 0xE5 SHL DUP2 MSTORE PUSH1 0x4 ADD PUSH2 0x128 SWAP1 PUSH2 0xB4F JUMP JUMPDEST PUSH1 0x3 SLOAD TIMESTAMP LT ISZERO PUSH2 0x4E4 JUMPI PUSH1 0x40 MLOAD PUSH3 0x461BCD PUSH1 0xE5 SHL DUP2 MSTORE PUSH1 0x4 ADD PUSH2 0x128 SWAP1 PUSH2 0xB72 JUMP JUMPDEST PUSH1 0x1 SLOAD PUSH1 0x2 SLOAD LT PUSH2 0x52A JUMPI PUSH1 0x40 MLOAD PUSH3 0x461BCD PUSH1 0xE5 SHL DUP2 MSTORE PUSH1 0x20 PUSH1 0x4 DUP3 ADD MSTORE PUSH1 0x10 PUSH1 0x24 DUP3 ADD MSTORE PUSH16 0x11DBD85B081DD85CC81C995858DA1959 PUSH1 0x82 SHL PUSH1 0x44 DUP3 ADD MSTORE PUSH1 0x64 ADD PUSH2 0x128 JUMP JUMPDEST PUSH1 0x0 JUMPDEST PUSH1 0x6 SLOAD DUP2 LT ISZERO PUSH2 0x618 JUMPI PUSH1 0x0 PUSH1 0x6 DUP3 DUP2 SLOAD DUP2 LT PUSH2 0x54C JUMPI PUSH2 0x54C PUSH2 0xB9F JUMP JUMPDEST PUSH1 0x0 SWAP2 DUP3 MSTORE PUSH1 0x20 DUP1 DUP4 KECCAK256 SWAP1 SWAP2 ADD SLOAD PUSH1 0x1 PUSH1 0x1 PUSH1 0xA0 SHL SUB AND DUP1 DUP4 MSTORE PUSH1 0x5 SWAP1 SWAP2 MSTORE PUSH1 0x40 SWAP1 SWAP2 KECCAK256 SLOAD SWAP1 SWAP2 POP DUP1 ISZERO PUSH2 0x603 JUMPI PUSH1 0x1 PUSH1 0x1 PUSH1 0xA0 SHL SUB DUP3 AND PUSH1 0x0 DUP2 DUP2 MSTORE PUSH1 0x5 PUSH1 0x20 MSTORE PUSH1 0x40 DUP1 DUP3 KECCAK256 DUP3 SWAP1 SSTORE MLOAD DUP4 ISZERO PUSH2 0x8FC MUL SWAP2 DUP5 SWAP2 SWAP1 DUP2 DUP2 DUP2 DUP6 DUP9 DUP9 CALL SWAP4 POP POP POP POP ISZERO DUP1 ISZERO PUSH2 0x5BE JUMPI RETURNDATASIZE PUSH1 0x0 DUP1 RETURNDATACOPY RETURNDATASIZE PUSH1 0x0 REVERT JUMPDEST POP DUP2 PUSH1 0x1 PUSH1 0x1 PUSH1 0xA0 SHL SUB AND PUSH32 0xA171B6942063C6F2800CE40A780EDCE37BAA2B618571B11EEDD1E69E626E7D76 DUP3 PUSH1 0x40 MLOAD PUSH2 0x5FA SWAP2 DUP2 MSTORE PUSH1 0x20 ADD SWAP1 JUMP JUMPDEST PUSH1 0x40 MLOAD DUP1 SWAP2 SUB SWAP1 LOG2 JUMPDEST POP POP DUP1 DUP1 PUSH2 0x610 SWAP1 PUSH2 0xBCB JUMP JUMPDEST SWAP2 POP POP PUSH2 0x52D JUMP JUMPDEST POP JUMP JUMPDEST PUSH1 0x6 DUP2 DUP2 SLOAD DUP2 LT PUSH2 0x62B JUMPI PUSH1 0x0 DUP1 REVERT JUMPDEST PUSH1 0x0 SWAP2 DUP3 MSTORE PUSH1 0x20 SWAP1 SWAP2 KECCAK256 ADD SLOAD PUSH1 0x1 PUSH1 0x1 PUSH1 0xA0 SHL SUB AND SWAP1 POP DUP2 JUMP JUMPDEST PUSH1 0x3 SLOAD TIMESTAMP LT ISZERO PUSH2 0x667 JUMPI PUSH1 0x40 MLOAD PUSH3 0x461BCD PUSH1 0xE5 SHL DUP2 MSTORE PUSH1 0x4 ADD PUSH2 0x128 SWAP1 PUSH2 0xB72 JUMP JUMPDEST PUSH1 0x1 SLOAD PUSH1 0x2 SLOAD LT PUSH2 0x6BA JUMPI PUSH1 0x40 MLOAD PUSH3 0x461BCD PUSH1 0xE5 SHL DUP2 MSTORE PUSH1 0x20 PUSH1 0x4 DUP3 ADD MSTORE PUSH1 0x1B PUSH1 0x24 DUP3 ADD MSTORE PUSH32 0x476F616C2077617320726561636865642C206E6F20726566756E640000000000 PUSH1 0x44 DUP3 ADD MSTORE PUSH1 0x64 ADD PUSH2 0x128 JUMP JUMPDEST CALLER PUSH1 0x0 SWAP1 DUP2 MSTORE PUSH1 0x5 PUSH1 0x20 MSTORE PUSH1 0x40 SWAP1 KECCAK256 SLOAD PUSH2 0x70E JUMPI PUSH1 0x40 MLOAD PUSH3 0x461BCD PUSH1 0xE5 SHL DUP2 MSTORE PUSH1 0x20 PUSH1 0x4 DUP3 ADD MSTORE PUSH1 0x15 PUSH1 0x24 DUP3 ADD MSTORE PUSH21 0x139BC818DBDB9D1C9A589D5D1A5BDB88199BDD5B99 PUSH1 0x5A SHL PUSH1 0x44 DUP3 ADD MSTORE PUSH1 0x64 ADD PUSH2 0x128 JUMP JUMPDEST CALLER PUSH1 0x0 DUP2 DUP2 MSTORE PUSH1 0x5 PUSH1 0x20 MSTORE PUSH1 0x40 DUP1 DUP3 KECCAK256 DUP1 SLOAD SWAP1 DUP4 SWAP1 SSTORE SWAP1 MLOAD SWAP1 SWAP3 SWAP2 DUP4 ISZERO PUSH2 0x8FC MUL SWAP2 DUP5 SWAP2 DUP2 DUP2 DUP2 DUP6 DUP9 DUP9 CALL SWAP4 POP POP POP POP ISZERO DUP1 ISZERO PUSH2 0x74F JUMPI RETURNDATASIZE PUSH1 0x0 DUP1 RETURNDATACOPY RETURNDATASIZE PUSH1 0x0 REVERT JUMPDEST POP PUSH1 0x40 MLOAD DUP2 DUP2 MSTORE CALLER SWAP1 PUSH32 0xA171B6942063C6F2800CE40A780EDCE37BAA2B618571B11EEDD1E69E626E7D76 SWAP1 PUSH1 0x20 ADD PUSH2 0x48D JUMP JUMPDEST PUSH1 0x4 SLOAD PUSH2 0x100 SWAP1 DIV PUSH1 0xFF AND ISZERO DUP1 ISZERO PUSH2 0x79B JUMPI POP PUSH1 0x3 SLOAD TIMESTAMP LT JUMPDEST PUSH2 0x7DD JUMPI PUSH1 0x40 MLOAD PUSH3 0x461BCD PUSH1 0xE5 SHL DUP2 MSTORE PUSH1 0x20 PUSH1 0x4 DUP3 ADD MSTORE PUSH1 0x13 PUSH1 0x24 DUP3 ADD MSTORE PUSH19 0x43616D706169676E206E6F7420616374697665 PUSH1 0x68 SHL PUSH1 0x44 DUP3 ADD MSTORE PUSH1 0x64 ADD PUSH2 0x128 JUMP JUMPDEST PUSH1 0x0 SLOAD PUSH1 0x1 PUSH1 0x1 PUSH1 0xA0 SHL SUB AND CALLER SUB PUSH2 0x837 JUMPI PUSH1 0x40 MLOAD PUSH3 0x461BCD PUSH1 0xE5 SHL DUP2 MSTORE PUSH1 0x20 PUSH1 0x4 DUP3 ADD MSTORE PUSH1 0x17 PUSH1 0x24 DUP3 ADD MSTORE PUSH32 0x4F776E65722063616E6E6F7420636F6E74726962757465000000000000000000 PUSH1 0x44 DUP3 ADD MSTORE PUSH1 0x64 ADD PUSH2 0x128 JUMP JUMPDEST PUSH1 0x0 CALLVALUE GT PUSH2 0x87C JUMPI PUSH1 0x40 MLOAD PUSH3 0x461BCD PUSH1 0xE5 SHL DUP2 MSTORE PUSH1 0x20 PUSH1 0x4 DUP3 ADD MSTORE PUSH1 0x12 PUSH1 0x24 DUP3 ADD MSTORE PUSH18 0x416D6F756E74206D757374206265203E203 PUSH1 0x74 SHL PUSH1 0x44 DUP3 ADD MSTORE PUSH1 0x64 ADD PUSH2 0x128 JUMP JUMPDEST CALLER PUSH1 0x0 SWAP1 DUP2 MSTORE PUSH1 0x5 PUSH1 0x20 MSTORE PUSH1 0x40 DUP2 KECCAK256 SLOAD SWAP1 SUB PUSH2 0x8D5 JUMPI PUSH1 0x6 DUP1 SLOAD PUSH1 0x1 DUP2 ADD DUP3 SSTORE PUSH1 0x0 SWAP2 SWAP1 SWAP2 MSTORE PUSH32 0xF652222313E28459528D920B65115C16C04F3EFC82AAEDC97BE59F3F377C0D3F ADD DUP1 SLOAD PUSH1 0x1 PUSH1 0x1 PUSH1 0xA0 SHL SUB NOT AND CALLER OR SWAP1 SSTORE JUMPDEST CALLER PUSH1 0x0 SWAP1 DUP2 MSTORE PUSH1 0x5 PUSH1 0x20 MSTORE PUSH1 0x40 DUP2 KECCAK256 DUP1 SLOAD CALLVALUE SWAP3 SWAP1 PUSH2 0x8F4 SWAP1 DUP5 SWAP1 PUSH2 0xBE4 JUMP JUMPDEST SWAP3 POP POP DUP2 SWAP1 SSTORE POP CALLVALUE PUSH1 0x2 PUSH1 0x0 DUP3 DUP3 SLOAD PUSH2 0x90D SWAP2 SWAP1 PUSH2 0xBE4 JUMP JUMPDEST SWAP1 SWAP2 SSTORE POP POP PUSH1 0x2 SLOAD PUSH1 0x40 MLOAD CALLER SWAP2 PUSH32 0xD2DFF949D20E874CC6BA1DCEFB840FB8CF6000A4197BFB69ACCFEA5A32443FF5 SWAP2 PUSH2 0x94E SWAP2 CALLVALUE DUP3 MSTORE PUSH1 0x20 DUP3 ADD MSTORE PUSH1 0x40 ADD SWAP1 JUMP JUMPDEST PUSH1 0x40 MLOAD DUP1 SWAP2 SUB SWAP1 LOG2 JUMP JUMPDEST PUSH1 0x0 SLOAD PUSH1 0x1 PUSH1 0x1 PUSH1 0xA0 SHL SUB AND CALLER EQ PUSH2 0x982 JUMPI PUSH1 0x40 MLOAD PUSH3 0x461BCD PUSH1 0xE5 SHL DUP2 MSTORE PUSH1 0x4 ADD PUSH2 0x128 SWAP1 PUSH2 0xB4F JUMP JUMPDEST PUSH1 0x4 SLOAD PUSH2 0x100 SWAP1 DIV PUSH1 0xFF AND ISZERO DUP1 ISZERO PUSH2 0x99B JUMPI POP PUSH1 0x3 SLOAD TIMESTAMP LT JUMPDEST PUSH2 0x9DD JUMPI PUSH1 0x40 MLOAD PUSH3 0x461BCD PUSH1 0xE5 SHL DUP2 MSTORE PUSH1 0x20 PUSH1 0x4 DUP3 ADD MSTORE PUSH1 0x13 PUSH1 0x24 DUP3 ADD MSTORE PUSH19 0x43616D706169676E206E6F7420616374697665 PUSH1 0x68 SHL PUSH1 0x44 DUP3 ADD MSTORE PUSH1 0x64 ADD PUSH2 0x128 JUMP JUMPDEST PUSH1 0x4 DUP1 SLOAD PUSH2 0xFF00 NOT AND PUSH2 0x100 OR SWAP1 SSTORE PUSH1 0x0 JUMPDEST PUSH1 0x6 SLOAD DUP2 LT ISZERO PUSH2 0xADA JUMPI PUSH1 0x0 PUSH1 0x6 DUP3 DUP2 SLOAD DUP2 LT PUSH2 0xA0E JUMPI PUSH2 0xA0E PUSH2 0xB9F JUMP JUMPDEST PUSH1 0x0 SWAP2 DUP3 MSTORE PUSH1 0x20 DUP1 DUP4 KECCAK256 SWAP1 SWAP2 ADD SLOAD PUSH1 0x1 PUSH1 0x1 PUSH1 0xA0 SHL SUB AND DUP1 DUP4 MSTORE PUSH1 0x5 SWAP1 SWAP2 MSTORE PUSH1 0x40 SWAP1 SWAP2 KECCAK256 SLOAD SWAP1 SWAP2 POP DUP1 ISZERO PUSH2 0xAC5 JUMPI PUSH1 0x1 PUSH1 0x1 PUSH1 0xA0 SHL SUB DUP3 AND PUSH1 0x0 DUP2 DUP2 MSTORE PUSH1 0x5 PUSH1 0x20 MSTORE PUSH1 0x40 DUP1 DUP3 KECCAK256 DUP3 SWAP1 SSTORE MLOAD DUP4 ISZERO PUSH2 0x8FC MUL SWAP2 DUP5 SWAP2 SWAP1 DUP2 DUP2 DUP2 DUP6 DUP9 DUP9 CALL SWAP4 POP POP POP POP ISZERO DUP1 ISZERO PUSH2 0xA80 JUMPI RETURNDATASIZE PUSH1 0x0 DUP1 RETURNDATACOPY RETURNDATASIZE PUSH1 0x0 REVERT JUMPDEST POP DUP2 PUSH1 0x1 PUSH1 0x1 PUSH1 0xA0 SHL SUB AND PUSH32 0xA171B6942063C6F2800CE40A780EDCE37BAA2B618571B11EEDD1E69E626E7D76 DUP3 PUSH1 0x40 MLOAD PUSH2 0xABC SWAP2 DUP2 MSTORE PUSH1 0x20 ADD SWAP1 JUMP JUMPDEST PUSH1 0x40 MLOAD DUP1 SWAP2 SUB SWAP1 LOG2 JUMPDEST POP POP DUP1 DUP1 PUSH2 0xAD2 SWAP1 PUSH2 0xBCB JUMP JUMPDEST SWAP2 POP POP PUSH2 0x9EF JUMP JUMPDEST POP PUSH1 0x40 MLOAD PUSH32 0x123D4F203B2B83BFE9F45903402BB88193CC56A43371D97AB5A51BD1817D8586 SWAP1 PUSH1 0x0 SWAP1 LOG1 JUMP JUMPDEST PUSH1 0x0 PUSH1 0x20 DUP3 DUP5 SUB SLT ISZERO PUSH2 0xB18 JUMPI PUSH1 0x0 DUP1 REVERT JUMPDEST POP CALLDATALOAD SWAP2 SWAP1 POP JUMP JUMPDEST PUSH1 0x0 PUSH1 0x20 DUP3 DUP5 SUB SLT ISZERO PUSH2 0xB31 JUMPI PUSH1 0x0 DUP1 REVERT JUMPDEST DUP2 CALLDATALOAD PUSH1 0x1 PUSH1 0x1 PUSH1 0xA0 SHL SUB DUP2 AND DUP2 EQ PUSH2 0xB48 JUMPI PUSH1 0x0 DUP1 REVERT JUMPDEST SWAP4 SWAP3 POP POP POP JUMP JUMPDEST PUSH1 0x20 DUP1 DUP3 MSTORE PUSH1 0x9 SWAP1 DUP3 ADD MSTORE PUSH9 0x2737BA1037BBB732B9 PUSH1 0xB9 SHL PUSH1 0x40 DUP3 ADD MSTORE PUSH1 0x60 ADD SWAP1 JUMP JUMPDEST PUSH1 0x20 DUP1 DUP3 MSTORE PUSH1 0x13 SWAP1 DUP3 ADD MSTORE PUSH19 0x111958591B1A5B99481B9BDD081C185CDCD959 PUSH1 0x6A SHL PUSH1 0x40 DUP3 ADD MSTORE PUSH1 0x60 ADD SWAP1 JUMP JUMPDEST PUSH4 0x4E487B71 PUSH1 0xE0 SHL PUSH1 0x0 MSTORE PUSH1 0x32 PUSH1 0x4 MSTORE PUSH1 0x24 PUSH1 0x0 REVERT JUMPDEST PUSH4 0x4E487B71 PUSH1 0xE0 SHL PUSH1 0x0 MSTORE PUSH1 0x11 PUSH1 0x4 MSTORE PUSH1 0x24 PUSH1 0x0 REVERT JUMPDEST PUSH1 0x0 PUSH1 0x1 DUP3 ADD PUSH2 0xBDD JUMPI PUSH2 0xBDD PUSH2 0xBB5 JUMP JUMPDEST POP PUSH1 0x1 ADD SWAP1 JUMP JUMPDEST DUP1 DUP3 ADD DUP1 DUP3 GT ISZERO PUSH2 0xBF7 JUMPI PUSH2 0xBF7 PUSH2 0xBB5 JUMP JUMPDEST SWAP3 SWAP2 POP POP JUMP INVALID LOG2 PUSH5 0x6970667358 0x22 SLT KECCAK256 0xC6 0x4A 0xC0 0xE7 PUSH26 0x53849D7FC3D1FDD972F85025DD91BEF97BF6796CD824F55F4D65 0xBC PUSH5 0x736F6C6343 STOP ADDMOD SGT STOP CALLER LOG2 PUSH5 0x6970667358 0x22 SLT KECCAK256 RETURNDATACOPY PUSH7 0xF1BB80359A79DB DUP2 CALLVALUE SWAP10 0xDD 0xF6 BYTE PUSH7 0xEAE4FDBAE0C42E DUP9 INVALID DUP4 PUSH16 0x85BD3EA7364736F6C63430008130033 "},"methodIdentifiers":{"campaigns(uint256)":"141961bc","createCampaign(uint256,uint256)":"22502268","getCampaignsCount()":"7e6253da","getOwnerCampaigns(address)":"be03de4b","ownerCampaigns(address,uint256)":"a56a2759"}}}}}