{
  "_format": "hh-sol-artifact-1",
  "contractName": "CrowdfundingFactory",
  "sourceName": "contracts/CrowdfundingFactory.sol",
  "abi": [
    {
      "anonymous": false,
      "inputs": [
        {
          "indexed": true,
          "internalType": "address",
          "name": "campaignAddress",
          "type": "address"
        },
        {
          "indexed": true,
          "internalType": "address",
          "name": "owner",
          "type": "address"
        },
        {
          "indexed": false,
          "internalType": "uint256",
          "name": "goalAmount",
          "type": "uint256"
        },
        {
          "indexed": false,
          "internalType": "uint256",
          "name": "deadline",
          "type": "uint256"
        }
      ],
      "name": "CampaignCreated",
      "type": "event"
    },
    {
      "inputs": [
        {
          "internalType": "uint256",
          "name": "",
          "type": "uint256"
        }
      ],
      "name": "campaigns",
      "outputs": [
        {
          "internalType": "address",
          "name": "",
          "type": "address"
        }
      ],
      "stateMutability": "view",
      "type": "function"
    },
    {
      "inputs": [
        {
          "internalType": "uint256",
          "name": "_goalAmount",
          "type": "uint256"
        },
        {
          "internalType": "uint256",
          "name": "_deadlineTimestamp",
          "type": "uint256"
        }
      ],
      "name": "createCampaign",
      "outputs": [
        {
          "internalType": "address",
          "name": "",
          "type": "address"
        }
      ],
      "stateMutability": "nonpayable",
      "type": "function"
    },
    {
      "inputs": [],
      "name": "getCampaignsCount",
      "outputs": [
        {
          "internalType": "uint256",
          "name": "",
          "type": "uint256"
        }
      ],
      "stateMutability": "view",
      "type": "function"
    },
    {
      "inputs": [
        {
          "internalType": "address",
          "name": "owner",
          "type": "address"
        }
      ],
      "name": "getOwnerCampaigns",
      "outputs": [
        {
          "internalType": "address[]",
          "name": "",
          "type": "address[]"
        }
      ],
      "stateMutability": "view",
      "type": "function"
    },
    {
      "inputs": [
        {
          "internalType": "address",
          "name": "",
          "type": "address"
        },
        {
          "internalType": "uint256",
          "name": "",
          "type": "uint256"
        }
      ],
      "name": "ownerCampaigns",
      "outputs": [
        {
          "internalType": "address",
          "name": "",
          "type": "address"
        }
      ],
      "stateMutability": "view",
      "type": "function"
    }
  ],
  "bytecode": "0x608060405234801561001057600080fd5b5061116b806100206000396000f3fe608060405234801561001057600080fd5b50600436106100575760003560e01c8063141961bc1461005c578063225022681461008c5780637e6253da1461009f578063a56a2759146100b0578063be03de4b146100c3575b600080fd5b61006f61006a366004610365565b6100e3565b6040516001600160a01b0390911681526020015b60405180910390f35b61006f61009a36600461037e565b61010d565b600054604051908152602001610083565b61006f6100be3660046103bc565b6102aa565b6100d66100d13660046103e6565b6102e2565b6040516100839190610408565b600081815481106100f357600080fd5b6000918252602090912001546001600160a01b0316905081565b60008083116101565760405162461bcd60e51b815260206004820152601060248201526f0476f616c206d757374206265203e20360841b60448201526064015b60405180910390fd5b4282116101a55760405162461bcd60e51b815260206004820152601a60248201527f446561646c696e65206d75737420626520696e20667574757265000000000000604482015260640161014d565b60003384846040516101b690610358565b6001600160a01b03909316835260208301919091526040820152606001604051809103906000f0801580156101ef573d6000803e3d6000fd5b5060008054600180820183557f290decd9548b62a8d60345a988386fc84ba6bc95484008f6362f93160ef3e56390910180546001600160a01b0385166001600160a01b0319918216811790925533808552602084815260408087208054968701815587529581902090940180549092168317909155835189815292830188905293945084939290917ffe76983af97e70cb1d5a3f3b21250c6bd2b5b9216dd3829a1cdab060e17ab15b910160405180910390a3949350505050565b600160205281600052604060002081815481106102c657600080fd5b6000918252602090912001546001600160a01b03169150829050565b6001600160a01b03811660009081526001602090815260409182902080548351818402810184019094528084526060939283018282801561034c57602002820191906000526020600020905b81546001600160a01b0316815260019091019060200180831161032e575b50505050509050919050565b610ce08061045683390190565b60006020828403121561037757600080fd5b5035919050565b6000806040838503121561039157600080fd5b50508035926020909101359150565b80356001600160a01b03811681146103b757600080fd5b919050565b600080604083850312156103cf57600080fd5b6103d8836103a0565b946020939093013593505050565b6000602082840312156103f857600080fd5b610401826103a0565b9392505050565b6020808252825182820181905260009190848201906040850190845b818110156104495783516001600160a01b031683529284019291840191600101610424565b5090969550505050505056fe608060405234801561001057600080fd5b50604051610ce0380380610ce083398101604081905261002f9161005b565b600080546001600160a01b0319166001600160a01b03949094169390931790925560015560035561009e565b60008060006060848603121561007057600080fd5b83516001600160a01b038116811461008757600080fd5b602085015160409095015190969495509392505050565b610c33806100ad6000396000f3fe6080604052600436106100ec5760003560e01c80638da5cb5b1161008a578063d7bb99ba11610059578063d7bb99ba146102e7578063ea8a1af0146102ef578063f441b1c814610304578063feed55611461031a57600080fd5b80638da5cb5b1461021b5780639a82a09a1461023b578063c80ec5221461026a578063d6290cd71461028457600080fd5b806338e771ab116100c657806338e771ab1461018c5780633cb5d100146101a157806342e94c90146101d9578063590e1ae31461020657600080fd5b806324600fc3146101365780632636b9451461014d57806329dcb0cf1461017657600080fd5b366101315760405162461bcd60e51b815260206004820152601060248201526f55736520636f6e74726962757465282960801b60448201526064015b60405180910390fd5b600080fd5b34801561014257600080fd5b5061014b61032f565b005b34801561015957600080fd5b5061016360015481565b6040519081526020015b60405180910390f35b34801561018257600080fd5b5061016360035481565b34801561019857600080fd5b5061014b610498565b3480156101ad57600080fd5b506101c16101bc366004610b06565b61061b565b6040516001600160a01b03909116815260200161016d565b3480156101e557600080fd5b506101636101f4366004610b1f565b60056020526000908152604090205481565b34801561021257600080fd5b5061014b610645565b34801561022757600080fd5b506000546101c1906001600160a01b031681565b34801561024757600080fd5b5060045461025a90610100900460ff1681565b604051901515815260200161016d565b34801561027657600080fd5b5060045461025a9060ff1681565b34801561029057600080fd5b50600054600154600254600354600454604080516001600160a01b039096168652602086019490945292840191909152606083015260ff8082161515608084015261010090910416151560a082015260c00161016d565b61014b610782565b3480156102fb57600080fd5b5061014b610958565b34801561031057600080fd5b5061016360025481565b34801561032657600080fd5b50600654610163565b6000546001600160a01b031633146103595760405162461bcd60e51b815260040161012890610b4f565b60035442101561037b5760405162461bcd60e51b815260040161012890610b72565b60015460025410156103c25760405162461bcd60e51b815260206004820152601060248201526f11dbd85b081b9bdd081c995858da195960821b6044820152606401610128565b60045460ff16156104095760405162461bcd60e51b815260206004820152601160248201527020b63932b0b23c903bb4ba34323930bbb760791b6044820152606401610128565b6004805460ff191660011790556000805460405147926001600160a01b039092169183156108fc02918491818181858888f19350505050158015610451573d6000803e3d6000fd5b506000546040518281526001600160a01b03909116907feaff4b37086828766ad3268786972c0cd24259d4c87a80f9d3963a3c3d999b0d906020015b60405180910390a250565b6000546001600160a01b031633146104c25760405162461bcd60e51b815260040161012890610b4f565b6003544210156104e45760405162461bcd60e51b815260040161012890610b72565b6001546002541061052a5760405162461bcd60e51b815260206004820152601060248201526f11dbd85b081dd85cc81c995858da195960821b6044820152606401610128565b60005b6006548110156106185760006006828154811061054c5761054c610b9f565b60009182526020808320909101546001600160a01b031680835260059091526040909120549091508015610603576001600160a01b0382166000818152600560205260408082208290555183156108fc0291849190818181858888f193505050501580156105be573d6000803e3d6000fd5b50816001600160a01b03167fa171b6942063c6f2800ce40a780edce37baa2b618571b11eedd1e69e626e7d76826040516105fa91815260200190565b60405180910390a25b5050808061061090610bcb565b91505061052d565b50565b6006818154811061062b57600080fd5b6000918252602090912001546001600160a01b0316905081565b6003544210156106675760405162461bcd60e51b815260040161012890610b72565b600154600254106106ba5760405162461bcd60e51b815260206004820152601b60248201527f476f616c2077617320726561636865642c206e6f20726566756e6400000000006044820152606401610128565b3360009081526005602052604090205461070e5760405162461bcd60e51b8152602060048201526015602482015274139bc818dbdb9d1c9a589d5d1a5bdb88199bdd5b99605a1b6044820152606401610128565b33600081815260056020526040808220805490839055905190929183156108fc02918491818181858888f1935050505015801561074f573d6000803e3d6000fd5b5060405181815233907fa171b6942063c6f2800ce40a780edce37baa2b618571b11eedd1e69e626e7d769060200161048d565b600454610100900460ff1615801561079b575060035442105b6107dd5760405162461bcd60e51b815260206004820152601360248201527243616d706169676e206e6f742061637469766560681b6044820152606401610128565b6000546001600160a01b031633036108375760405162461bcd60e51b815260206004820152601760248201527f4f776e65722063616e6e6f7420636f6e747269627574650000000000000000006044820152606401610128565b6000341161087c5760405162461bcd60e51b81526020600482015260126024820152710416d6f756e74206d757374206265203e20360741b6044820152606401610128565b3360009081526005602052604081205490036108d557600680546001810182556000919091527ff652222313e28459528d920b65115c16c04f3efc82aaedc97be59f3f377c0d3f0180546001600160a01b031916331790555b33600090815260056020526040812080543492906108f4908490610be4565b92505081905550346002600082825461090d9190610be4565b909155505060025460405133917fd2dff949d20e874cc6ba1dcefb840fb8cf6000a4197bfb69accfea5a32443ff59161094e91348252602082015260400190565b60405180910390a2565b6000546001600160a01b031633146109825760405162461bcd60e51b815260040161012890610b4f565b600454610100900460ff1615801561099b575060035442105b6109dd5760405162461bcd60e51b815260206004820152601360248201527243616d706169676e206e6f742061637469766560681b6044820152606401610128565b6004805461ff00191661010017905560005b600654811015610ada57600060068281548110610a0e57610a0e610b9f565b60009182526020808320909101546001600160a01b031680835260059091526040909120549091508015610ac5576001600160a01b0382166000818152600560205260408082208290555183156108fc0291849190818181858888f19350505050158015610a80573d6000803e3d6000fd5b50816001600160a01b03167fa171b6942063c6f2800ce40a780edce37baa2b618571b11eedd1e69e626e7d7682604051610abc91815260200190565b60405180910390a25b50508080610ad290610bcb565b9150506109ef565b506040517f123d4f203b2b83bfe9f45903402bb88193cc56a43371d97ab5a51bd1817d858690600090a1565b600060208284031215610b1857600080fd5b5035919050565b600060208284031215610b3157600080fd5b81356001600160a01b0381168114610b4857600080fd5b9392505050565b6020808252600990820152682737ba1037bbb732b960b91b604082015260600190565b602080825260139082015272111958591b1a5b99481b9bdd081c185cdcd959606a1b604082015260600190565b634e487b7160e01b600052603260045260246000fd5b634e487b7160e01b600052601160045260246000fd5b600060018201610bdd57610bdd610bb5565b5060010190565b80820180821115610bf757610bf7610bb5565b9291505056fea2646970667358221220c64ac0e77953849d7fc3d1fdd972f85025dd91bef97bf6796cd824f55f4d65bc64736f6c63430008130033a26469706673582212203e66f1bb80359a79db813499ddf61a66eae4fdbae0c42e88fe836f085bd3ea7364736f6c63430008130033",
  "linkReferences": {},
  "deployedLinkReferences": {}
}